:100000000C942A000C9434000C9434000C943400AA
:100010000C9434000C9434000C9434000C94340090
:100020000C9434000C9434000C9434000C94340080
:100030000C9434000C9434000C9434000C94340070
:100040000C9434000C9434000C9434000C94340060
:100050000C94340011241FBECFE5D8E0DEBFCDBF25
:100060000E9436000C9448000C94000088E087BB86
:1000700080E88BBB83E783BF20E49FE789B3807868
:1000800019F0813019F0FACF2CBFF8CF9CBFF6CF12
:04009000F894FFCF12
:00000001FF
