S0130000646F6F72206C6F636B2D332E7372656334
S11300000C9472000C948F000C948F000C94C70510
S11300100C948F000C948F000C948F000C948F0020
S11300200C948F000C948F000C948F000C948F0010
S11300300C948F000C948F000C948F000C948F0000
S11300400C948F000C948F000C948F000C948F00F0
S11300500C948F00FF002D015B018801B401B401F1
S1130060B401B401B401B401B401B401B401B401E4
S1130070B401B401B401B401B401B401B401B401D4
S1130080B401B401B401B401B401B401B401B401C4
S1130090B401B401FF002D015B018801C101DD0140
S11300A0F90114022E022E022E022E022E022E021C
S11300B02E022E022E022E022E022E022E022E02BC
S11300C02E022E022E022E022E022E022E022E02AC
S11300D02E022E022E022E022E022E02C101DD015C
S11300E0F901140211241FBECFE5D8E0DEBFCDBF55
S11300F011E0A0E6B0E0E4EBFDE002C005900D9253
S1130100A038B107D9F721E0A0E8B1E001C01D9201
S1130110A43EB207E1F70E9485060C94D8060C941D
S1130120000096B1987F96B98031D9F038F48430C4
S113013081F0883091F0823021F507C08034C9F015
S11301408038D9F08032E9F410C086B1816086B974
S1130150089586B1826086B9089586B1836086B9B0
S1130160089586B1846086B9089586B1856086B99C
S1130170089586B1866086B9089586B1876086B988
S1130180089586B186B9089597B19F7397B9813060
S113019039F018F0823041F00BC087B187B9089567
S11301A087B1806487B9089587B1806C87B9089551
S11301B087B187B90895CF93DF93D62FC42F96B113
S11301C0906896B90E9491008D2F0E94C400CC23A0
S11301D021F087B1806287B903C087B18F7D87B969
S11301E0DF91CF91089590E0FC01E154F109E432EC
S11301F0F10508F0B9C0E65DFF4F0C949D0641116E
S11302000CC02AB381E090E002C0880F991F6A9560
S1130210E2F7809582238ABB0895423081F42AB3A1
S113022081E090E002C0880F991F6A95E2F7982F49
S1130230909592239ABB9BB3892B8BBB0895413035
S113024009F092C02AB381E090E002C0880F991FA0
S11302506A95E2F7822B8ABB089541110CC027B33B
S113026081E090E002C0880F991F6A95E2F78095BB
S1130270822387BB0895423081F427B381E090E064
S113028002C0880F991F6A95E2F7982F90959223E0
S113029097BB98B3892B88BB0895413009F064C09B
S11302A027B381E090E002C0880F991F6A95E2F7B6
S11302B0822B87BB089541110CC024B381E090E0E8
S11302C002C0880F991F6A95E2F78095822384BB48
S11302D00895423081F424B381E090E002C0880F95
S11302E0991F6A95E2F7982F9095922394BB95B342
S11302F0892B85BB08954130B9F524B381E090E0A2
S113030002C0880F991F6A95E2F7822B84BB089577
S113031041110CC021B381E090E002C0880F991F05
S11303206A95E2F78095822381BB0895423081F477
S113033021B381E090E002C0880F991F6A95E2F72B
S1130340982F9095922391BB92B3892B82BB0895E9
S1130350413051F421B381E090E002C0880F991F2D
S11303606A95E2F7822B81BB089590E0FC01E15489
S1130370F109E432F10508F071C0E25BFF4F0C941F
S11303809D0641110CC02BB381E090E002C0880FA0
S1130390991F6A95E2F7809582238BBB08954130BB
S11303A009F05CC02BB381E090E002C0880F991F74
S11303B06A95E2F7822B8BBB089541110CC028B3D8
S11303C081E090E002C0880F991F6A95E2F780955A
S11303D0822388BB0895413009F040C028B381E0EE
S11303E090E002C0880F991F6A95E2F7822B88BBC0
S11303F0089541110CC025B381E090E002C0880F3C
S1130400991F6A95E2F78095822385BB0895413050
S113041029F525B381E090E002C0880F991F6A9501
S1130420E2F7822B85BB089541110CC022B381E011
S113043090E002C0880F991F6A95E2F780958223A5
S113044082BB0895413051F422B381E090E002C0B0
S1130450880F991F6A95E2F7822B82BB08952CB30B
S11304609FBB8EBB6DBB8CB384608CBB8CB3826032
S11304708CBB87EA91E60197F1F700C0000008956C
S11304809CB390E09FBB8EBB8CB381608CBB8DB35F
S11304900895863031F08730E9F0853009F041C0A5
S11304A032C0611102C015BE11C0613021F485B79C
S11304B0816085BF0BC0633021F485B7826085BF3E
S11304C005C0623019F485B7836085BF8BB780643B
S11304D08BBF0895611102C015BE11C0613021F4B3
S11304E085B7846085BF0BC0633021F485B788600D
S11304F085BF05C0623019F485B78C6085BF8BB7A2
S113050080688BBF0895633021F485B78F7B85BFE6
S113051005C0623019F485B7806485BF8BB78062EB
S11305208BBF089580EF84BB8FEF85BB8FE083BBC7
S113053085B38F7085BB83B38F708F30C9F787E81D
S113054093E10197F1F700C0000083B38F708F30FF
S1130550B1F787E893E10197F1F700C0000083B396
S11305608F708F3061F78FEE85BB83B38F708F30C0
S1130570A1F48FED85BB83B38F708F3081F48FEB43
S113058085BB83B38F708F3061F48FE785BB83B3F2
S11305908F708F3041F3E3E005C0E0E003C0E1E099
S11305A001C0E2E08E3049F4F0E0EE0FFF1FEE0FE1
S11305B0FF1FE05AFF4F808108958D3049F4F0E029
S11305C0EE0FFF1FEE0FFF1FE05AFF4F81810895CA
S11305D08B3049F4F0E0EE0FFF1FEE0FFF1FE05ADF
S11305E0FF4F82810895F0E0EE0FFF1FEE0FFF1F13
S11305F0E05AFF4F8381089502C00000C9019C01A5
S113060021503109892BC9F70895CF93C82F8BB393
S11306108F709C2F907F892B8BBB8BB38E7F8BBB72
S11306208BB38D7F8BBB8BB384608BBB81E090E0FD
S11306300E94FC028BB38B7F8BBB84E190E00E9411
S1130640FC022BB330E1C39FC0011124922F9F7091
S1130650892B8BBB8BB384608BBB81E090E00E94C1
S1130660FC028BB38B7F8BBBCF9108958FEF8ABB3A
S113067080ED97E00E94FC0283E30E94050384E678
S113068090E00E94FC0282E30E94050384E690E06D
S11306900E94FC0288E20E94050384E690E00E9426
S11306A0FC028CE00E94050384E690E00E94FC02B8
S11306B081E00E94050380ED97E00E94FC0286E041
S11306C00E94050384E690E00E94FC020895CF9303
S11306D0C82F8BB38F709C2F907F892B8BBB8BB3D0
S11306E081608BBB8BB38D7F8BBB8BB384608BBBE7
S11306F081E090E00E94FC028BB38B7F8BBB2BB319
S113070030E1C39FC0011124922F9F70892B8BBBB2
S11307108BB384608BBB81E090E00E94FC028BB3BE
S11307208B7F8BBBCF910895CF93DF9300D000D004
S1130730CDB7DEB790E8998390EC9A8394E99B83D4
S113074094ED9C83E62FF0E0319721E030E02C0F0C
S11307503D1FE20FF31F9081890F81500E94050312
S113076084E690E00E94FC020F900F900F900F908F
S1130770DF91CF9108958FE00E94050384E690E015
S11307800E94FC0208958CE00E94050384E690E038
S11307900E94FC02089580E10E94050384E690E033
S11307A00E94FC0208950F931F93CF938C01C0E025
S11307B003C00E946703CF5FF801EC0FF11D808135
S11307C08111F7CFCF911F910F91089581E00E947D
S11307D0050380ED97E00E94FC0261E081E00E9445
S11307E0940308950E94360340E061E080E80E948B
S11307F0DB0041E060E082E40E94F30041E061E05C
S113080082E40E94F30041E063E082E40E94F3008A
S113081041E064E082E40E94F30042E062E082E4AA
S11308200E94F30063E085E00E944902789460E04E
S113083089E190E00E942F0208950E94E60380E778
S113084090E00E94D30362E081E00E94940384E874
S113085090E00E94D30308950E94E60383E990E0A8
S11308600E94D30362E081E00E9494038DE990E04A
S11308700E94D3030895FC01421313C090E00DC0FD
S1130880292F30E0DF01A20FB31F5C91DB01A20F1F
S1130890B31F8C91581307C09F5F941788F381E0AE
S11308A0089580E0089580E00895EF92FF920F93F9
S11308B01F93CF93DF937C010E94BB03C0E0D0E081
S11308C027C00E949202833231F18A3261F41C16ED
S11308D01D064CF40E94CB0380E20E9467030E9431
S11308E0CB03219715C08A3219F41C161D0674F423
S11308F0CA30D10569F08E010F5F1F4FCE0DDF1D89
S113090088838AE20E946703E80102C0C0E0D0E065
S1130910CB30D105B4F20E94C3038C2FDF91CF9169
S11309201F910F91FF90EF900895CF92DF92EF9275
S1130930FF920F931F93CF93DF93CDB7DEB76697E4
S11309400FB6F894DEBF0FBECDBF8BE09E012F5FC4
S11309503F4F7901F901282F11922A95E9F76E0189
S11309603CE0C30ED11CF60111928A95E9F70E946E
S1130970E60361E081E00E94940384EB90E00E942E
S1130980D30362E081E00E949403C7010E945504EE
S1130990082F0E94E60361E081E00E94940388EC42
S11309A090E00E94D30362E081E00E949403C601B8
S11309B00E945504282F402FB601C7010E943B0412
S11309C0882381F1F894602F81E090E00E942F0247
S11309D010E00DC0812F90E0E1E0F0E0EC0FFD1F8E
S11309E0E80FF91F608102960E942F021F5F101703
S11309F088F378940E94E6038CED90E00E94D30380
S1130A0062E081E00E9494038FEE90E00E94D303A1
S1130A10FFE32DE033E0F15020403040E1F700C027
S1130A2000001DC00E94E60361E081E00E9494037F
S1130A308EEF90E00E94D30362E081E00E94940371
S1130A408FE091E00E94D3038FE39DE0E3E08150C7
S1130A509040E040E1F700C000000E9495046696D3
S1130A600FB6F894DEBF0FBECDBFDF91CF911F91BB
S1130A700F91FF90EF90DF90CF900895EF92FF9247
S1130A801F93CF93DF93182F7B0181E00E944002D4
S1130A90811322C0C0E01CC0F701EC0FF11DD0810E
S1130AA082E08C0F0E944002D81789F00E94E6036E
S1130AB08EE191E00E94D3032FE38DE093E0215077
S1130AC080409040E1F700C0000080E006C0CF5FA6
S1130AD0C11710F381E001C080E0DF91CF911F9135
S1130AE0FF90EF90089541E063E082E40E94B50135
S1130AF041E060E082E40E94B50140E061E082E40C
S1130B000E94B5010E94E60384E291E00E94D303AF
S1130B102FE78AE196E0215080409040E1F700C041
S1130B20000040E063E082E40E94B50160E089E1F6
S1130B3090E00E942F02089541E063E082E40E9465
S1130B40B50140E060E082E40E94B50141E061E06B
S1130B5082E40E94B50141E064E082E40E94B501B0
S1130B6088B3806188BB2FE78AE196E021508040FA
S1130B709040E1F700C0000040E064E082E40E949D
S1130B80B50140E063E082E40E94B50108951F923C
S1130B900F920FB60F9211242F933F934F935F93AD
S1130BA06F937F938F939F93AF93BF93EF93FF9331
S1130BB0F8940E949C057894FF91EF91BF91AF91B6
S1130BC09F918F917F916F915F914F913F912F9161
S1130BD00F900FBE0F901F901895CF9389E10E943C
S1130BE0400261E0680F89E190E00E942F0289E1F0
S1130BF00E944002833029F089E10E94400285303E
S1130C0079F50E94E60361E081E00E94940388E3A1
S1130C1091E00E94D30362E081E00E94940387E4A0
S1130C2091E00E94D303CBE316C062E08EE00E9401
S1130C3094034AE060E871E08C2F90E00E94A306E0
S1130C4080E891E00E94D30387EA91E60197F1F7E7
S1130C5000C00000C150C111E8CF0E944F061DC062
S1130C600E94E60361E081E00E94940388E391E03E
S1130C700E94D30362E081E00E9494038BE591E03B
S1130C800E94D3039FE32DE083E0915020408040F5
S1130C90E1F700C000000E944F06CF9108950F9322
S1130CA01F93CF93DF93CDB7DEB72B970FB6F8948E
S1130CB0DEBF0FBECDBF8E010F5F1F4F8BE0F8016B
S1130CC011928A95E9F70E94E6038AE691E00E9470
S1130CD0D30362E081E00E949403C8010E9455049A
S1130CE0B8010E943E05882319F00E94730502C0D2
S1130CF00E94ED052B960FB6F894DEBF0FBECDBF54
S1130D00DF91CF911F910F9108950E94F2030E94E9
S1130D101D040E9492020E942C040E9492029FECE5
S1130D20980F9230C0F7813319F40E944F06F1CF27
S1130D30823379F70E949504ECCFEE0FFF1F0590E4
S1130D40F491E02D0994BB274A3031F4992322F41D
S1130D50BDE2909581959F4F0C94AF06BB27FB0194
S1130D605527AA27880F991FAA1FA41710F0A41BA0
S1130D7083955051B9F7A05DAA3308F0A95DA193FA
S1130D80009779F7B111B1931192CB010C94C80675
S1130D90DC01FC01672F71917723E1F7329704C0DE
S1130DA07C916D9370836291AE17BF07C8F3089569
S1070DB0F894FFCFE1
S1130DB43132332F3435363D3738392D2A30232B0D
S1130DC42050617373776F726420646F6F72206C48
S1130DD46F636B0020202020202057656C636F6DA7
S1130DE46521002831294C6F672D696E002832294A
S1130DF44368616E676520506173732F7369676E0E
S1130E0420757000596F7572206E65772050617378
S1130E1473776F72643A200052652D656E7465723F
S1130E242050617373776F72643A20002020596FE5
S1130E3475722070617373776F7264206973002014
S1130E442020202020697320736176656400466144
S1130E54696C6564206F7065726174696F6E0050AB
S1130E646C7A2C2054727920616761696E00627215
S1130E7465616B002054686520646F6F7220697328
S1130E84206F70656E65640057726F6E67207061C1
S1130E947373776F72640054727920616761696E49
S1130EA420696E2020202053656300506C7A2C2026
S1130EB474727920616761696E00456E746572208D
S1130EC4796F75722070617373776F72643A20005E
S9030000FC
