:100000000C942A000C9434000C9434000C943400AA
:100010000C9434000C9434000C9434000C94340090
:100020000C9434000C9434000C9434000C94340080
:100030000C9434000C9434000C9434000C94340070
:100040000C9434000C9434000C9434000C94340060
:100050000C94340011241FBECFE5D8E0DEBFCDBF25
:100060000E9436000C94AA000C94000081B38062B8
:1000700081BB8FE19EE497BD86BD80EB94E09BBD84
:100080008ABD1DBC1CBC82E88FBD89E18EBD88E5A0
:1000900092E09BBD8ABD2FE73AE146E02150304017
:1000A0004040E1F700C0000080E293E09BBD8ABDC4
:1000B0005FE76AE176E0515060407040E1F700C0D0
:1000C000000028EE33E03BBD2ABDEFE74AE156E0F1
:1000D000E15040405040E1F700C0000048E755E0E3
:1000E0005BBD4ABD6FE77AE1E6E061507040E040F9
:1000F000E1F700C0000068E077E07BBD6ABD6FE714
:100100007AE1E6E061507040E040E1F700C00000B5
:100110005BBD4ABD4FE75AE166E041505040604048
:10012000E1F700C000003BBD2ABD7FE7EAE126E021
:100130007150E0402040E1F700C000009BBD8ABD47
:100140003FE74AE156E0315040405040E1F700C0FF
:0801500000009DCFF894FFCFE1
:00000001FF
