:100000000C942A000C943F000C943F000C943F0089
:100010000C943F000C943F000C943F000C943F0064
:100020000C943F000C943F000C943F000C943F0054
:100030000C943F000C943F000C943F000C943F0044
:100040000C943F000C943F000C943F000C943F0034
:100050000C943F0011241FBECFE5D8E0DEBFCDBF1A
:1000600010E0A0E6B0E0E2E7F4E002C005900D92F7
:10007000AE37B107D9F70E94D6010C9437020C9421
:100080000000882324F495B3906895BB03C095B312
:100090009F7795BB86FF04C095B3906495BB03C062
:1000A00095B39F7B95BB85FF04C095B3906295BBCC
:1000B00003C095B39F7D95BB84FF04C085B3806169
:1000C00085BB089585B38F7E85BB0895CF93C82FD8
:1000D000807F0E94410082B3806182BB82B38064D2
:1000E00082BB89EF90E00197F1F700C0000082B376
:1000F0008F7B82BB82B38F7E82BB89EF90E00197BA
:10010000F1F700C000008C2F8295807F0E94410093
:1001100082B3806182BB82B3806482BB89EF90E04E
:100120000197F1F700C0000082B38F7B82BB82B3DE
:100130008F7E82BB89EF90E00197F1F700C000004D
:10014000CF910895CF93C82F807F0E94410082B342
:10015000806482BB89EF90E00197F1F700C0000056
:1001600082B38F7B82BB89EF90E00197F1F700C0EB
:1001700000008C2F8295807F0E94410082B38064B2
:1001800082BB89EF90E00197F1F700C0000082B3D5
:100190008F7B82BB89EF90E00197F1F700C00000F0
:1001A000CF91089585EA9EE00197F1F700C0000025
:1001B00080E00E94410082B38F7E82BB82B38F7D3C
:1001C00082BB82B38F7B82BB84B3806184BB84B3E8
:1001D000806284BB84B3806484BB84B3806884BB46
:1001E00081B3806181BB81B3806281BB81B3806454
:1001F00081BB80E30E94410082B3806482BB89EFAF
:1002000090E00197F1F700C0000082B38F7B82BBC2
:1002100089EF90E00197F1F700C0000080E30E94B1
:10022000410082B3806482BB89EF90E00197F1F7CF
:1002300000C0000082B38F7B82BB89EF90E0019702
:10024000F1F700C0000080E20E94410082B38064A8
:1002500082BB89EF90E00197F1F700C0000082B304
:100260008F7B82BB89EF90E00197F1F700C000001F
:1002700088E20E94A2008CE00E94A200089581E022
:100280000E94A2000895623031F0633031F0613095
:1002900029F4805C03C08C5E01C08C5A80680E9487
:1002A000A2000895EF92FF920F931F93CF93DF93D5
:1002B00000D000D01F92CDB7DEB77B01FE01319692
:1002C00025E0DF011D922A95E9F724E030E00FC018
:1002D0006AE070E00E940F02E1E0F0E0EC0FFD1F29
:1002E000E20FF31F8083862F972F2150310900974B
:1002F00079F705E010E00E191F090CC0E1E0F0E00D
:10030000EC0FFD1FE00FF11F8081805D0E946600F1
:100310000F5F1F4F053011058CF30F900F900F905A
:100320000F900F90DF91CF911F910F91FF90EF9061
:100330000895CF93DF93EC0103C00E9466002196DD
:1003400088818111FACFDF91CF9108958BB38F60AF
:100350008BBB80E027C09AB31ABA9AB320E830E08A
:10036000082E02C0359527950A94E2F7292B2ABB5F
:1003700090E015C069B328E030E0A901092E02C061
:10038000559547950A94E2F7262F30E0242335232C
:10039000232B21F4990F990F890F08959F5F9430B3
:1003A00048F38F5F8430B8F28FEF08951ABA8BB399
:1003B0008F608BBB0E94D20060E082E00E9443010C
:1003C00080E690E00E9499012FEF80E792E02150B3
:1003D00080409040E1F700C000000E943F0160E0D3
:1003E00080E00E9443018EE690E00E94990161E066
:1003F00082E00E94430182E790E00E9499010E94FE
:10040000A601C82F8F3FD9F361E08CE00E94430121
:1004100062E070E08C2F90E00E945201F0CF97FBD9
:10042000072E16F4009407D077FD09D00E9423020E
:1004300007FC05D03EF4909581959F4F08957095E7
:1004400061957F4F0895AA1BBB1B51E107C0AA1FEE
:10045000BB1FA617B70710F0A61BB70B881F991F65
:100460005A95A9F780959095BC01CD010895F8940F
:02047000FFCFBC
:100472004D6174726978204B6579706164004B65D7
:0E048200790050726573736564203D200000A0
:00000001FF
