S01400004578703035205061727420322E7372656375
S11300000C9433000C943D000C943D000C943D0082
S11300100C943D000C943D000C943D000C943D0068
S11300200C943D000C943D000C943D000C943D0058
S11300300C943D000C943D000C943D000C943D0048
S11300400C943D000C943D000C943D000C943D0038
S11300500C943D00520056005A005E006200660097
S11300606A006E00720011241FBECFE5D8E0DEBF27
S1130070CDBF0E9476000C94A8000C940000E82FD9
S113008085B3807885BB8E2F90E0FC013197E930F1
S1130090F10520F4E65DFF4F0C94A20085B38F6355
S11300A085BB089585B3866085BB089585B38B654C
S11300B085BB089585B38F6485BB089585B3866633
S11300C085BB089585B38D6685BB089585B38D671B
S11300D085BB089585B3876085BB089585B38F6715
S11300E085BB089585B38F6685BB08958FEF84BB68
S11300F081B38E7F81BB80E00E943F00C0E0809985
S11301000FC02FEF83EF91E0215080409040E1F742
S113011000C00000C93098F7CF5F8C2F0E943F00C9
S11301208199EDCF2FEF83EF91E0215080409040F3
S1130130E1F700C00000CC2311F3C1508C2F0E94C2
S11301403F00DDCFEE0FFF1F0590F491E02D0994E1
S1070150F894FFCF4D
S9030000FC
