S017000033315F43435F375F7365676D656E742E73726563DC
S11300000C942A000C9434000C9434000C943400A6
S11300100C9434000C9434000C9434000C9434008C
S11300200C9434000C9434000C9434000C9434007C
S11300300C9434000C9434000C9434000C9434006C
S11300400C9434000C9434000C9434000C9434005C
S11300500C94340011241FBECFE5D8E0DEBFCDBF21
S11300600E9436000C9440000C94000084B38FEF7F
S113007084BB91B381BB8FE485BB86E082BBFFCF99
S1070080F894FFCF1E
S9030000FC
