:100000000C942A000C943F000C943F000C943F0089
:100010000C943F000C943F000C943F000C943F0064
:100020000C943F000C943F000C943F000C943F0054
:100030000C943F000C943F000C943F000C943F0044
:100040000C943F000C943F000C943F000C943F0034
:100050000C943F0011241FBECFE5D8E0DEBFCDBF1A
:1000600010E0A0E6B0E0EEEFF0E002C005900D92E7
:10007000AA36B107D9F70E9441000C947D000C9478
:100080000000CF93DF93CDB7DEB72A970FB6F89471
:10009000DEBF0FBECDBF8FEF84BB81BB8AE0E0E641
:1000A000F0E0DE01119601900D928A95E1F740E0B3
:1000B00050E01FC0E1E0F0E0EC0FFD1FE40FF51F82
:1000C000208125BBE1E0F0E0EC0FFD1FE80FF91FF8
:1000D000208122BBEBE7F2E93197F1F700C0000085
:1000E000019602C080E090E08A3091051CF34F5FDA
:0E00F0005F4F4A305105B4F3DACFF894FFCFDA
:0A00FE003F065B4F666D7D077F6FC4
:00000001FF
