:100000000C942A000C9434000C9434000C943400AA
:100010000C9434000C9434000C9434000C94340090
:100020000C9434000C9434000C9434000C94340080
:100030000C9434000C9434000C9434000C94340070
:100040000C9434000C9434000C9434000C94340060
:100050000C94340011241FBECFE5D8E0DEBFCDBF25
:100060000E9436000C945B000C94000081E084BB7D
:1000700081B38E7F81BB809BFECF17C021E025BB63
:100080002FEF36E141E1215030404040E1F700C020
:10009000000015BA2FEF36E141E1215030404040D9
:1000A000E1F700C00000019602C080E090E08530DA
:0A00B000910524F3E0CFF894FFCF90
:00000001FF
