:100000000C942A000C943F000C943F000C943F0089
:100010000C943F000C943F000C943F000C943F0064
:100020000C943F000C943F000C943F000C943F0054
:100030000C943F000C943F000C943F000C943F0044
:100040000C943F000C943F000C943F000C943F0034
:100050000C943F0011241FBECFE5D8E0DEBFCDBF1A
:1000600010E0A0E6B0E0E2EEF2E002C005900D92F2
:10007000AE36B107D9F70E945B010C946F010C9466
:100080000000882324F495B3906895BB03C095B312
:100090009F7795BB86FF04C095B3906495BB03C062
:1000A00095B39F7B95BB85FF04C095B3906295BBCC
:1000B00003C095B39F7D95BB84FF04C085B3806169
:1000C00085BB089585B38F7E85BB0895CF93C82FD8
:1000D000807F0E94410082B3806182BB82B38064D2
:1000E00082BB89EF90E00197F1F700C0000082B376
:1000F0008F7B82BB82B38F7E82BB89EF90E00197BA
:10010000F1F700C000008C2F8295807F0E94410093
:1001100082B3806182BB82B3806482BB89EF90E04E
:100120000197F1F700C0000082B38F7B82BB82B3DE
:100130008F7E82BB89EF90E00197F1F700C000004D
:10014000CF910895CF93C82F807F0E94410082B342
:10015000806482BB89EF90E00197F1F700C0000056
:1001600082B38F7B82BB89EF90E00197F1F700C0EB
:1001700000008C2F8295807F0E94410082B38064B2
:1001800082BB89EF90E00197F1F700C0000082B3D5
:100190008F7B82BB89EF90E00197F1F700C00000F0
:1001A000CF91089585EA9EE00197F1F700C0000025
:1001B00080E00E94410082B38F7E82BB82B38F7D3C
:1001C00082BB82B38F7B82BB84B3806184BB84B3E8
:1001D000806284BB84B3806484BB84B3806884BB46
:1001E00081B3806181BB81B3806281BB81B3806454
:1001F00081BB80E30E94410082B3806482BB89EFAF
:1002000090E00197F1F700C0000082B38F7B82BBC2
:1002100089EF90E00197F1F700C0000080E30E94B1
:10022000410082B3806482BB89EF90E00197F1F7CF
:1002300000C0000082B38F7B82BB89EF90E0019702
:10024000F1F700C0000080E20E94410082B38064A8
:1002500082BB89EF90E00197F1F700C0000082B304
:100260008F7B82BB89EF90E00197F1F700C000001F
:1002700088E20E94A2008CE00E94A20008956230F1
:1002800031F0633031F0613029F4805C03C08C5E62
:1002900001C08C5A80680E94A2000895CF93DF931A
:1002A000EC0103C00E946600219688818111FACF7B
:1002B000DF91CF9108958FEF81BB84BB87EA91E6F0
:1002C0000197F1F700C000000E94D20060E082E0D8
:1002D0000E943F0180E690E00E944E01FFCFF8941B
:0202E000FFCF4E
:0E02E20048656C6C6F20576F726C64210000D1
:00000001FF
